:100000000F28000000000000FE00030EFA000408A4
:10001000FB000A08FC0083127F08FD00532B102808
:100020009723C90083132030840049308223703025
:100030008400783082238301922B000000000000AE
:1000400000000000000000000000000000000000B0
:1000500000000000000000000000000000000000A0
:100060000000000000000000000000000000000090
:100070000000000000000000000000000000000080
:100080000000000000000000000000000000000070
:100090000000000000000000000000000000000060
:1000A0000000000000000000000000000000000050
:1000B0000000000000000000000000000000000040
:1000C0000000000000000000000000000000000030
:1000D0000000000000000000000000000000000020
:1000E0000000000000000000000000000000000010
:1000F0000000000000000000000000000000000000
:1001000000000000000000000000000000000000EF
:1001100000000000000000000000000000000000DF
:1001200000000000000000000000000000000000CF
:1001300000000000000000000000000000000000BF
:1001400000000000000000000000000000000000AF
:10015000000000000000000000000000000000009F
:10016000000000000000000000000000000000008F
:10017000000000000000000000000000000000007F
:10018000000000000000000000000000000000006F
:10019000000000000000000000000000000000005F
:1001A000000000000000000000000000000000004F
:1001B000000000000000000000000000000000003F
:1001C000000000000000000000000000000000002F
:1001D000000000000000000000000000000000001F
:1001E000000000000000000000000000000000000F
:1001F00000000000000000000000000000000000FF
:100200007F087F398A000408840A0319FF0A8200E4
:1002100008340834083408340834083408340834FE
:1002200008340834083408340834083408340834EE
:1002300008340834083408340834083408340834DE
:1002400008340834083408340834083408340834CE
:1004700008340834083408340E34093400340034A5
:100480000034003400340A340A34063400340034B2
:100490000034003419340E34003400340034003495
:1004A000003410340F340834003400340034003485
:1004B000103408340F3400340034003400340B346A
:1004C00004340B3404340A34003400340A34053460
:1004D0000A34013400340034003407340334063461
:1004E00003340634013400340A340A340634003448
:1004F000003400340034083409340034003400344B
:10050000003400340834083400340034003400343B
:10051000003403340334073400340034003400342E
:100520000734083400340034003400340034033419
:100530000334033403340334033407340D340D34EB
:100540000034003400340034003404340734003400
:1005500000340034003400340434063400340034F1
:1005600000340034003400340034003400340034EB
:1005700000340034033403340034033403340334CC
:1005800003340034003400340034003400340034C8
:1005900003340334003400340334033403340334A9
:1005A000003403340034033400340334033400349F
:1005B000033400340334003403340334003403348C
:1005C0000034003400340334033400340334003482
:1005D0000334003403340334033403340334033466
:1005E0000334033400340034003400340034003465
:1005F0000034033403340334033403340334033446
:10060000033400340334003403340034033400343E
:100610000034003400340034003400340334003437
:100620000334003403340034033400340034003421
:10063000003400340034003403340334033403340E
:100640000334033403340034003400340034003401
:100650000034003417308312980083168113103051
:100660009500831285010730990083169F01DC30C5
:1006700085008312AF01831681120108F83903380F
:10068000810081116400992383169501051283125C
:1006900085018316051699238330831281000B117F
:1006A000A0308B0008000B198B1E622B8330810059
:1006B0006E230130F9007908F7070A307702031832
:1006C000F7010B117D088312FF007C088A007B086C
:1006D00084007A0E8300FE0E7E0E09000130F800C1
:1006E0007808F0070A30700203187A2BFF30831263
:1006F00085007C2B831285010B307002031C0800DF
:10070000F001080064008001840A04060319003423
:100710000406832B713083168F000F1D08008F1C79
:1007200008008D2B8A232A2398236400952B0134FB
:1007300008000800000000000000000000000000A9
:1007400000000000000000000000000000000000A9
:100750000000000000000000000000000000000099
:100760000000000000000000000000000000000089
:100770000000000000000000000000000000000079
:02400E001CFB99
:0A42000000000000000000000000B4
:00000001FF
