:100000000F28000000000000FE00030E8312D10044
:100010000408D2000A08D3007F08D400342B10282B
:10002000773084007D30F9262030831384004B30F4
:10003000F92683017D2C0000000000000000000074
:1000400000000000000000000000000000000000B0
:1000500000000000000000000000000000000000A0
:100060000000000000000000000000000000000090
:100070000000000000000000000000000000000080
:100080000000000000000000000000000000000070
:100090000000000000000000000000000000000060
:1000A0000000000000000000000000000000000050
:1000B0000000000000000000000000000000000040
:1000C0000000000000000000000000000000000030
:1000D0000000000000000000000000000000000020
:1000E0000000000000000000000000000000000010
:1000F0000000000000000000000000000000000000
:1001000000000000000000000000000000000000EF
:1001100000000000000000000000000000000000DF
:1001200000000000000000000000000000000000CF
:1001300000000000000000000000000000000000BF
:1001400000000000000000000000000000000000AF
:10015000000000000000000000000000000000009F
:10016000000000000000000000000000000000008F
:10017000000000000000000000000000000000007F
:10018000000000000000000000000000000000006F
:10019000000000000000000000000000000000005F
:1001A000000000000000000000000000000000004F
:1001B000000000000000000000000000000000003F
:1001C000000000000000000000000000000000002F
:1001D000000000000000000000000000000000001F
:1001E000000000000000000000000000000000000F
:1001F00000000000000000000000000000000000FF
:10020000FF1B0A2983137F1883170008840A031928
:10021000FF0A08007F087F398A000408840A03194E
:10022000FF0A82000334023403340234633463343B
:100230006334633463346334633463346334633406
:1002400063346334633463346334633463346334F6
:100250000134003401340034633463346334633470
:1002600063346334633463346334633463346334D6
:100270006334633463346334633463340334023487
:1002800003340234033402340134003401340034C2
:100290000134003401340034633463346334633430
:1002A0006334633463346334043402340434023416
:1002B0006334633463346334633463346334633486
:1002C0006334633463346334633463346334633476
:1002D00063346334063400340634003463346334E6
:1002E0006334633463346334633463346334633456
:1002F0006334633463346334633463346334633446
:100300000434023404340234043402340634003435
:100310000634003406340034063400346334633465
:1003200063346334633463346334633405340234D4
:1003300005340234633463346334633463346334C4
:1003400063346334633463346334633463346334F5
:100350006334633463346334073400340734003463
:1003600063346334633463346334633463346334D5
:1003700063346334633463346334633463346334C5
:1003800063346334053402340534023405340234F2
:1003900007340034073400340734003407340034A1
:1003A0006334633463346334633463346334633495
:1003B0000D340E340D340E340F340F341034103429
:1003C0000F340F34103410340B340C340B340C3421
:1003D0000A3409340A3409340A3409340A34093431
:1003E0000A3409340D340D34103410340F340F3402
:1003F000103410340F340F34103410340F340F34E1
:100400000D340E340D340E340734083408340834F7
:100410006334633463346334633463346334633424
:100420006334633463346334633463346334633414
:100430006334633408340834083408346334633470
:1004400063346334633463346334633463346334F4
:1004500063346334633463346334633463346334E4
:100460000834083408340834633463346334633440
:1004700063346334633463346334633463346334C4
:10048000633463346334633463346334003400347A
:1004900000340034003400340034033403340034B6
:1004A00003340334033403340034003400340034A0
:1004B0000034003400340334033400340034033493
:1004C000033403340334003403340034033400347D
:1004D000033403340034033400340334003403346D
:1004E0000334003403340034003400340334033460
:1004F000003403340034033400340334033403344D
:10050000033403340334033403340034003400343C
:10051000003400340034003403340334033403342F
:100520000334033403340334003403340034033419
:100530000034033400340034003400340034003418
:1005400000340334003403340034033400340334FF
:1005500000340034003400340034003400340334F8
:1005600003340334033403340334033400340034D9
:10057000003400340034003400340E3409340034C4
:1005800000340034003400340A340A3406340034B1
:1005900000340034003419340E3400340034003494
:1005A0000034003410340F34083400340034003484
:1005B0000034103408340F34003400340034003474
:1005C0000B3404340B3404340A34003400340A3459
:1005D00005340A3401340034003400340734033461
:1005E000063403340634013400340A340A34063441
:1005F000003400340034003408340934003400344A
:10060000003400340034083408340034003400343A
:10061000003400340334033407340034003400342D
:10062000003407340834003400340034003400341B
:1006300003340334033403340334033407340D34F4
:100640000D340034003400340034003404340734F2
:1006500000340034003400340034043406340034F0
:1006600000340034003400340B198B1E722C83309C
:1006700081004A08031949080319402B5E25CA0165
:100680000A30BB0A3B02031C712C0730BB017C0201
:100690000318932B4808031D932B47087B06031967
:1006A000542BFC017B08C7000730F0007B0889252C
:1006B000BD3ECB0082300318013ECC007C084B07C6
:1006C00084004C0803184C0AFF000021C8000730C2
:1006D000F0007B088925463ECB0082300318013E9E
:1006E000CC007C084B0784004C0803184C0AFF0020
:1006F0000021FA00FC0A0730F0007B088925BD3E86
:10070000CB0082300318013ECC007C084B078400EC
:100710004C0803184C0AFF000021003A031D152C59
:100720000730FC00152C07307C02031C152C4608F2
:10073000790603199E2BF8017908C60045080319AC
:10074000A32B0130C40043080319A82B7808B62B4B
:100750007808F6000130F60576080319B22B780800
:10076000FF3EB42B7808013EF6007608CB00CC01A2
:100770007908F0001630F101F200F301B4261230CE
:10078000CD008130CE0070084D07CF0071080318EE
:10079000710A4E07D0004B084F0784004C0803181D
:1007A0004C0A5007FF000021FB00420BE52B781C90
:1007B000E52BC10A023041020318C1014108031DA3
:1007C000E32BFD30E42BFE30C000F80A163078022F
:1007D00003180C2C7808CB00CC017908F0001630F7
:1007E000F101F200F301B4261230CD008130CE00C9
:1007F00070084D07CF0071080318710A4E07D0002A
:100800004B084F0784004C0803184C0A5007FF00A0
:100810000021633A031D142C49080319112CF80315
:10082000142CF8010130C500FC0106304802031801
:100830002A2C4508031D051E2A2C7708031D2A2C87
:10084000440803192A2C7A082038FA000130BF0026
:10085000C501C4013F080319051A332CC8307702BB
:100860000318332CF70A0330480203183C2C3F08C6
:1008700003193C2CFA12BF0102307702031C4F2CE3
:1008800007307702031C051E4F2C4908031D4F2C0F
:100890000730FC00C801F801F701C501C401051EBD
:1008A0005A2C073077020318592C023077020318AC
:1008B0005A2CF7013E08CB00CC014C08CE007A0838
:1008C0004B02CD00031CCE034E040319692C0130EA
:1008D000CA007A08BE00BD0ABC0A4808031DC80346
:1008E0004F260B115408FF0053088A005208840059
:1008F000510E8300FE0E7E0E09001027B32503263D
:100900000130AA002B0803196400CD2609303506F2
:10091000031D912C2708031D912C0130A700AA016B
:10092000332527080319D42C2B08031DD42CBD0113
:100930009D2CC7303D0203189F2C051E992C3D08A5
:10094000DF006400C73083125F02031CBE2C38082E
:10095000223E840083138001AD014308031DB22CA5
:100960000130B32C0030C3003808203E8400430817
:1009700080000130AB0033259426DB25C7305F02B1
:100980000318D42CBD01C82C02303D020318CA2C18
:10099000051AC42C02303D02031CD42C0130AD00DA
:1009A0002A26BD010130AB00043032020318DC2CD2
:1009B00005303D02031CE62C2C08031DE62C2D08F7
:1009C0000319E62C0130AC00BD0185162C08031973
:1009D000F12C0D303D02031CF12CBD010130AE00A5
:1009E00085122E080319FC2C051AF82CBD01B5013F
:1009F0000B303D020318AE012708031D822C013085
:100A0000AA00AD01AC01AB01822CD8005508D7007B
:100A100083169C18082D83125808FF3E83169B00EE
:100A20009C138312D603560F162D080083169C18AC
:100A3000162D8312570884008313000883169A002A
:100A40008312D70A83169B0A03108B1B03148B1384
:100A50001C1555309D00AA309D009C141C11031CD0
:100A6000112D8B17112D2A0803194D2D7A08A50079
:100A70003008A505260B4A2D0430A40A24020318C9
:100A8000442D25088500452D85010B3024020318CF
:100A9000A40108002508850008002B0803195C2D17
:100AA0002D08031D080043080319592D2330850024
:100AB0000800203085000800850108002A08031975
:100AC000782D7A08A5003008A505260B752D043071
:100AD000A40A240203186F2D25088500702D8501B6
:100AE0000B3024020318A401080025088500080023
:100AF0002B080319872D2D08031D0800430803192F
:100B0000842D2330850008002030850008008501F1
:100B10000800F200F10170087218F1070310F00DDF
:100B20007008F218F1070310F00D70087219F10740
:100B30000310F00D7008F219F1070310F00D7008A2
:100B4000721AF1070310F00D7008F21AF107031082
:100B5000F00D7008721BF1070310F00D7008F21B06
:100B6000F10771080800173083129800831681136B
:100B700010309500831285010730990083169F017C
:100B8000DC3085008312AA01831681120108F8392E
:100B90000338810081116400EF2683169501051248
:100BA0008312850183160516EF26833081000B1111
:100BB000A0308B0008003808223E84008313000810
:100BC000B9003908F900A6010B3039020318EE2DDF
:100BD000C9013908F900FE30B000C2010D307906B4
:100BE000031DF42D0130A6000B307902031CFD2DEE
:100BF0000130C900FE30B000FE2DC9010730FC00F5
:100C0000C801BC01080004300127DD00A63A031921
:100C10000A2EE226DE015E08023E0127DC005E08A5
:100C2000223E84005C08831380005E08003E01279A
:100C3000DC005E08203E84005C08831380000230E4
:100C4000DE0A5E02031C0B2E05303D02031C242E1F
:100C5000CD26DB2D3808223E840083130008DC00FB
:100C6000380B3E2E0D305C02380803183B2E223E16
:100C70008400800A3E2E223E840080013808031D35
:100C80004D2E0D305C02380803184A2E223E840097
:100C9000800A4D2E223E840080019426DB2D051D06
:100CA0005B2EB301043036020318582EB60A632EA9
:100CB0000130A900632EB601043033020318622EFE
:100CC000B30A632EA901051A6B2EB2010930350251
:100CD000031CB50A0800B501073032020318722E52
:100CE000B20A0800A7010800D8005808D7008316E8
:100CF0009C18772E8312550883169B008312D60307
:100D0000560F832E080083169C18832E9C131C14E8
:100D100083125708840083161A08831380008312F5
:100D2000D70A83169B0A7E2EFF30D900043009278C
:100D3000DB015B08223E840083130008D9005B08B6
:100D4000023E09275B08203E840083130008D90077
:100D50005B08003E09270230DB0A5B02031C992E68
:100D6000A630D9000430092FF401F501701CBE2E05
:100D70007208F4070318F50A7308F5070310F20D5B
:100D8000F30D0310F10CF00C70087104031DB62E66
:100D90007508F1007408F00008008312B8012908F2
:100DA0000319D42E0130B800370838060319D92E9C
:100DB000DB253808203E840083130008C300380870
:100DC000B7000800A2010330A3000130A000A10079
:100DD000942604300127A63A03190800EE2E831248
:100DE000D501FA30550203180800051EEF2ED50A6A
:100DF000F12E64008001840A0406031900340406FD
:100E0000FA2ED900D5005A30D601D60A74265A08CF
:100E10000800DA005930D500D601D60A5A08052D47
:100E2000713083168F000F198F1C0800132F0000DC
:100E300000000000000000000000000000000000B2
:100E400000000000000000000000000000000000A2
:100E50000000000000000000000000000000000092
:100E60000000000000000000000000000000000082
:100E70000000000000000000000000000000000072
:100E80000000000000000000000000000000000062
:100E90000000000000000000000000000000000052
:100EA0000000000000000000000000000000000042
:100EB0000000000000000000000000000000000032
:100EC0000000000000000000000000000000000022
:100ED0000000000000000000000000000000000012
:100EE0000000000000000000000000000000000002
:100EF00000000000000000000000000000000000F2
:100F000000000000000000000000000000000000E1
:100F100000000000000000000000000000000000D1
:100F200000000000000000000000000000000000C1
:100F300000000000000000000000000000000000B1
:100F400000000000000000000000000000000000A1
:100F50000000000000000000000000000000000091
:100F60000000000000000000000000000000000081
:100F70000000000000000000000000000000000071
:100F80000000000000000000000000000000000061
:100F90000000000000000000000000000000000051
:100FA0000000000000000000000000000000000041
:100FB0000000000000000000000000000000000031
:100FC0000000000000000000000000000000000021
:100FD0000000000000000000000000000000000011
:100FE0000000000000000000000000000000000001
:100FF00000000000000000000000000000000000F1
:02400E001CFB99
:0A42000000000000000000000000B4
:00000001FF
